{"abi":[{"type":"constructor","inputs":[{"name":"drips_","type":"address","internalType":"contract IDrips"},{"name":"manager_","type":"address","internalType":"address"}],"stateMutability":"nonpayable"},{"type":"function","name":"accountId","inputs":[],"outputs":[{"name":"","type":"uint256","internalType":"uint256"}],"stateMutability":"view"},{"type":"function","name":"claim","inputs":[{"name":"sprintId","type":"uint256","internalType":"uint256"},{"name":"proof","type":"bytes32[]","internalType":"bytes32[]"},{"name":"points","type":"uint32","internalType":"uint32"}],"outputs":[],"stateMutability":"nonpayable"},{"type":"function","name":"claimed","inputs":[{"name":"sprintId","type":"uint256","internalType":"uint256"},{"name":"contributor","type":"address","internalType":"address"}],"outputs":[{"name":"","type":"bool","internalType":"bool"}],"stateMutability":"view"},{"type":"function","name":"closeSprint","inputs":[{"name":"sprintId","type":"uint256","internalType":"uint256"}],"outputs":[],"stateMutability":"nonpayable"},{"type":"function","name":"drips","inputs":[],"outputs":[{"name":"","type":"address","internalType":"contract IDrips"}],"stateMutability":"view"},{"type":"function","name":"driverId","inputs":[],"outputs":[{"name":"","type":"uint32","internalType":"uint32"}],"stateMutability":"view"},{"type":"function","name":"manager","inputs":[],"outputs":[{"name":"","type":"address","internalType":"address"}],"stateMutability":"view"},{"type":"function","name":"newSprint","inputs":[{"name":"merkleRoot_","type":"bytes32","internalType":"bytes32"},{"name":"token_","type":"address","internalType":"contract IERC20"},{"name":"totalCapacity_","type":"uint128","internalType":"uint128"},{"name":"streamDuration_","type":"uint32","internalType":"uint32"},{"name":"totalPoints_","type":"uint32","internalType":"uint32"}],"outputs":[{"name":"sprintId","type":"uint256","internalType":"uint256"}],"stateMutability":"nonpayable"},{"type":"function","name":"recoverTokens","inputs":[{"name":"token","type":"address","internalType":"contract IERC20"},{"name":"amount","type":"uint256","internalType":"uint256"}],"outputs":[],"stateMutability":"nonpayable"},{"type":"function","name":"sprintCount","inputs":[],"outputs":[{"name":"","type":"uint256","internalType":"uint256"}],"stateMutability":"view"},{"type":"function","name":"sprints","inputs":[{"name":"sprintId","type":"uint256","internalType":"uint256"}],"outputs":[{"name":"merkleRoot","type":"bytes32","internalType":"bytes32"},{"name":"token","type":"address","internalType":"contract IERC20"},{"name":"totalCapacity","type":"uint128","internalType":"uint128"},{"name":"streamDuration","type":"uint32","internalType":"uint32"},{"name":"totalPoints","type":"uint32","internalType":"uint32"},{"name":"active","type":"bool","internalType":"bool"}],"stateMutability":"view"},{"type":"function","name":"transferManager","inputs":[{"name":"newManager","type":"address","internalType":"address"}],"outputs":[],"stateMutability":"nonpayable"},{"type":"event","name":"Claimed","inputs":[{"name":"sprintId","type":"uint256","indexed":true,"internalType":"uint256"},{"name":"contributor","type":"address","indexed":true,"internalType":"address"},{"name":"points","type":"uint32","indexed":false,"internalType":"uint32"},{"name":"amtPerSec","type":"uint160","indexed":false,"internalType":"uint160"}],"anonymous":false},{"type":"event","name":"ManagerTransferred","inputs":[{"name":"oldManager","type":"address","indexed":true,"internalType":"address"},{"name":"newManager","type":"address","indexed":true,"internalType":"address"}],"anonymous":false},{"type":"event","name":"SprintCreated","inputs":[{"name":"sprintId","type":"uint256","indexed":true,"internalType":"uint256"},{"name":"merkleRoot","type":"bytes32","indexed":false,"internalType":"bytes32"},{"name":"token","type":"address","indexed":false,"internalType":"contract IERC20"},{"name":"totalCapacity","type":"uint128","indexed":false,"internalType":"uint128"}],"anonymous":false},{"type":"error","name":"AlreadyClaimed","inputs":[]},{"type":"error","name":"CapacityOverflow","inputs":[]},{"type":"error","name":"InvalidProof","inputs":[]},{"type":"error","name":"NotManager","inputs":[]},{"type":"error","name":"SprintNotActive","inputs":[]},{"type":"error","name":"StreamRateTooLow","inputs":[]},{"type":"error","name":"ZeroPoints","inputs":[]}],"bytecode":{"object":"0x60e060405234801561000f575f5ffd5b5060405161261c38038061261c833981810160405281019061003191906101fc565b8173ffffffffffffffffffffffffffffffffffffffff1660808173ffffffffffffffffffffffffffffffffffffffff1681525050805f5f6101000a81548173ffffffffffffffffffffffffffffffffffffffff021916908373ffffffffffffffffffffffffffffffffffffffff1602179055508173ffffffffffffffffffffffffffffffffffffffff1663f0f4fd5e306040518263ffffffff1660e01b81526004016100dd9190610249565b6020604051808303815f875af11580156100f9573d5f5f3e3d5ffd5b505050506040513d601f19601f8201168201806040525081019061011d919061029b565b63ffffffff1660a08163ffffffff16815250503073ffffffffffffffffffffffffffffffffffffffff1660e060a05163ffffffff16901b1760c0818152505050506102c6565b5f5ffd5b5f73ffffffffffffffffffffffffffffffffffffffff82169050919050565b5f61019082610167565b9050919050565b5f6101a182610186565b9050919050565b6101b181610197565b81146101bb575f5ffd5b50565b5f815190506101cc816101a8565b92915050565b6101db81610186565b81146101e5575f5ffd5b50565b5f815190506101f6816101d2565b92915050565b5f5f6040838503121561021257610211610163565b5b5f61021f858286016101be565b9250506020610230858286016101e8565b9150509250929050565b61024381610186565b82525050565b5f60208201905061025c5f83018461023a565b92915050565b5f63ffffffff82169050919050565b61027a81610262565b8114610284575f5ffd5b50565b5f8151905061029581610271565b92915050565b5f602082840312156102b0576102af610163565b5b5f6102bd84828501610287565b91505092915050565b60805160a05160c0516123096103135f395f81816107dd0152610f9f01525f61080101525f81816104c80152818161073e01528181610bac01528181610cec0152610f6301526123095ff3fe608060405234801561000f575f5ffd5b50600436106100b2575f3560e01c80637c7167681161006f5780637c7167681461018f5780639cfd7cff146101bf578063a1694a77146101dd578063ba0e930a146101fb578063efcbdc5c14610217578063f51bf93314610235576100b2565b8063069c9fae146100b6578063120aa877146100d2578063481c6a751461010257806348b012b714610120578063699165c0146101555780637c435d2914610171575b5f5ffd5b6100d060048036038101906100cb919061166d565b610251565b005b6100ec60048036038101906100e791906116d5565b610325565b6040516100f9919061172d565b60405180910390f35b61010a61034f565b6040516101179190611755565b60405180910390f35b61013a6004803603810190610135919061176e565b610373565b60405161014c96959493929190611854565b60405180910390f35b61016f600480360381019061016a919061176e565b610412565b005b6101796104c6565b60405161018691906118d3565b60405180910390f35b6101a960048036038101906101a4919061196a565b6104ea565b6040516101b691906119f0565b60405180910390f35b6101c76107db565b6040516101d491906119f0565b60405180910390f35b6101e56107ff565b6040516101f29190611a09565b60405180910390f35b61021560048036038101906102109190611a22565b610823565b005b61021f610964565b60405161022c91906119f0565b60405180910390f35b61024f600480360381019061024a9190611aae565b61096a565b005b5f5f9054906101000a900473ffffffffffffffffffffffffffffffffffffffff1673ffffffffffffffffffffffffffffffffffffffff163373ffffffffffffffffffffffffffffffffffffffff16146102d6576040517fc0fc8a8a00000000000000000000000000000000000000000000000000000000815260040160405180910390fd5b6103215f5f9054906101000a900473ffffffffffffffffffffffffffffffffffffffff16828473ffffffffffffffffffffffffffffffffffffffff166110fd9092919063ffffffff16565b5050565b6003602052815f5260405f20602052805f5260405f205f915091509054906101000a900460ff1681565b5f5f9054906101000a900473ffffffffffffffffffffffffffffffffffffffff1681565b6002602052805f5260405f205f91509050805f015490806001015f9054906101000a900473ffffffffffffffffffffffffffffffffffffffff1690806002015f9054906101000a90046fffffffffffffffffffffffffffffffff16908060020160109054906101000a900463ffffffff16908060020160149054906101000a900463ffffffff16908060020160189054906101000a900460ff16905086565b5f5f9054906101000a900473ffffffffffffffffffffffffffffffffffffffff1673ffffffffffffffffffffffffffffffffffffffff163373ffffffffffffffffffffffffffffffffffffffff1614610497576040517fc0fc8a8a00000000000000000000000000000000000000000000000000000000815260040160405180910390fd5b5f60025f8381526020019081526020015f2060020160186101000a81548160ff02191690831515021790555050565b7f000000000000000000000000000000000000000000000000000000000000000081565b5f5f5f9054906101000a900473ffffffffffffffffffffffffffffffffffffffff1673ffffffffffffffffffffffffffffffffffffffff163373ffffffffffffffffffffffffffffffffffffffff1614610570576040517fc0fc8a8a00000000000000000000000000000000000000000000000000000000815260040160405180910390fd5b60015f81548092919061058290611b4c565b9190505590506040518060c001604052808781526020018673ffffffffffffffffffffffffffffffffffffffff168152602001856fffffffffffffffffffffffffffffffff1681526020018463ffffffff1681526020018363ffffffff1681526020016001151581525060025f8381526020019081526020015f205f820151815f01556020820151816001015f6101000a81548173ffffffffffffffffffffffffffffffffffffffff021916908373ffffffffffffffffffffffffffffffffffffffff1602179055506040820151816002015f6101000a8154816fffffffffffffffffffffffffffffffff02191690836fffffffffffffffffffffffffffffffff16021790555060608201518160020160106101000a81548163ffffffff021916908363ffffffff16021790555060808201518160020160146101000a81548163ffffffff021916908363ffffffff16021790555060a08201518160020160186101000a81548160ff0219169083151502179055509050506107393330866fffffffffffffffffffffffffffffffff168873ffffffffffffffffffffffffffffffffffffffff1661122c909392919063ffffffff16565b6107967f0000000000000000000000000000000000000000000000000000000000000000856fffffffffffffffffffffffffffffffff168773ffffffffffffffffffffffffffffffffffffffff1661135e9092919063ffffffff16565b807f8a5b05a49155bacef2211f1e626f0814535cdd3286f2dfd577f5cededbe563e18787876040516107ca93929190611b93565b60405180910390a295945050505050565b7f000000000000000000000000000000000000000000000000000000000000000081565b7f000000000000000000000000000000000000000000000000000000000000000081565b5f5f9054906101000a900473ffffffffffffffffffffffffffffffffffffffff1673ffffffffffffffffffffffffffffffffffffffff163373ffffffffffffffffffffffffffffffffffffffff16146108a8576040517fc0fc8a8a00000000000000000000000000000000000000000000000000000000815260040160405180910390fd5b8073ffffffffffffffffffffffffffffffffffffffff165f5f9054906101000a900473ffffffffffffffffffffffffffffffffffffffff1673ffffffffffffffffffffffffffffffffffffffff167f9cb45c728de594dab506a1f1a8554e24c8eeaf983618d5ec5dd7bc6f3c49feee60405160405180910390a3805f5f6101000a81548173ffffffffffffffffffffffffffffffffffffffff021916908373ffffffffffffffffffffffffffffffffffffffff16021790555050565b60015481565b5f60025f8681526020019081526020015f2090508060020160189054906101000a900460ff166109c6576040517f567dc87400000000000000000000000000000000000000000000000000000000815260040160405180910390fd5b60035f8681526020019081526020015f205f3373ffffffffffffffffffffffffffffffffffffffff1673ffffffffffffffffffffffffffffffffffffffff1681526020019081526020015f205f9054906101000a900460ff1615610a56576040517f646cf55800000000000000000000000000000000000000000000000000000000815260040160405180910390fd5b5f8263ffffffff1603610a95576040517f6abb5ca500000000000000000000000000000000000000000000000000000000815260040160405180910390fd5b5f3383604051602001610aa9929190611c41565b604051602081830303815290604052805190602001209050610b0f8585808060200260200160405190810160405280939291908181526020018383602002808284375f81840152601f19601f82011690508083019250505050505050835f01548361148d565b610b45576040517f09bde33900000000000000000000000000000000000000000000000000000000815260040160405180910390fd5b600160035f8881526020019081526020015f205f3373ffffffffffffffffffffffffffffffffffffffff1673ffffffffffffffffffffffffffffffffffffffff1681526020019081526020015f205f6101000a81548160ff0219169083151502179055505f7f000000000000000000000000000000000000000000000000000000000000000073ffffffffffffffffffffffffffffffffffffffff1663387d2a2f6040518163ffffffff1660e01b8152600401602060405180830381865afa158015610c13573d5f5f3e3d5ffd5b505050506040513d601f19601f82011682018060405250810190610c379190611c96565b90505f8360020160109054906101000a900463ffffffff1663ffffffff168460020160149054906101000a900463ffffffff1663ffffffff16610c7a9190611cc1565b8273ffffffffffffffffffffffffffffffffffffffff16856002015f9054906101000a90046fffffffffffffffffffffffffffffffff166fffffffffffffffffffffffffffffffff168763ffffffff16610cd49190611cc1565b610cde9190611cc1565b610ce89190611d2f565b90507f000000000000000000000000000000000000000000000000000000000000000073ffffffffffffffffffffffffffffffffffffffff1663c82051dd6040518163ffffffff1660e01b8152600401602060405180830381865afa158015610d53573d5f5f3e3d5ffd5b505050506040513d601f19601f82011682018060405250810190610d779190611c96565b73ffffffffffffffffffffffffffffffffffffffff168173ffffffffffffffffffffffffffffffffffffffff161015610ddc576040517fdc7ea73900000000000000000000000000000000000000000000000000000000815260040160405180910390fd5b5f610de63361153c565b90505f610e095f845f8960020160109054906101000a900463ffffffff1661155b565b90505f600167ffffffffffffffff811115610e2757610e26611d5f565b5b604051908082528060200260200182016040528015610e6057816020015b610e4d6115af565b815260200190600190039081610e455790505b509050604051806040016040528084815260200183815250815f81518110610e8b57610e8a611d8c565b5b60200260200101819052505f8760020160149054906101000a900463ffffffff1663ffffffff16886002015f9054906101000a90046fffffffffffffffffffffffffffffffff166fffffffffffffffffffffffffffffffff168a63ffffffff16610ef59190611cc1565b610eff9190611d2f565b90506f7fffffffffffffffffffffffffffffff6fffffffffffffffffffffffffffffffff16811115610f5d576040517f45b4ea6300000000000000000000000000000000000000000000000000000000815260040160405180910390fd5b5f8190507f000000000000000000000000000000000000000000000000000000000000000073ffffffffffffffffffffffffffffffffffffffff1663b3a3a5737f00000000000000000000000000000000000000000000000000000000000000008b6001015f9054906101000a900473ffffffffffffffffffffffffffffffffffffffff165f67ffffffffffffffff811115610ffc57610ffb611d5f565b5b60405190808252806020026020018201604052801561103557816020015b6110226115af565b81526020019060019003908161101a5790505b5085885f5f6040518863ffffffff1660e01b815260040161105c9796959493929190611f21565b6020604051808303815f875af1158015611078573d5f5f3e3d5ffd5b505050506040513d601f19601f8201168201806040525081019061109c9190611fc6565b503373ffffffffffffffffffffffffffffffffffffffff168d7f0fe7976090b38e12043537b9bb066cfe411b0636302c9cad4d0f9ced15b7be648c896040516110e6929190612000565b60405180910390a350505050505050505050505050565b5f5f8473ffffffffffffffffffffffffffffffffffffffff168484604051602401611129929190612027565b60405160208183030381529060405263a9059cbb60e01b6020820180517bffffffffffffffffffffffffffffffffffffffffffffffffffffffff838183161783525050505060405161117b91906120a0565b5f604051808303815f865af19150503d805f81146111b4576040519150601f19603f3d011682016040523d82523d5f602084013e6111b9565b606091505b50915091508180156111e657505f815114806111e55750808060200190518101906111e491906120e0565b5b5b611225576040517f08c379a000000000000000000000000000000000000000000000000000000000815260040161121c90612165565b60405180910390fd5b5050505050565b5f5f8573ffffffffffffffffffffffffffffffffffffffff1685858560405160240161125a93929190612183565b6040516020818303038152906040526323b872dd60e01b6020820180517bffffffffffffffffffffffffffffffffffffffffffffffffffffffff83818316178352505050506040516112ac91906120a0565b5f604051808303815f865af19150503d805f81146112e5576040519150601f19603f3d011682016040523d82523d5f602084013e6112ea565b606091505b509150915081801561131757505f8151148061131657508080602001905181019061131591906120e0565b5b5b611356576040517f08c379a000000000000000000000000000000000000000000000000000000000815260040161134d90612202565b60405180910390fd5b505050505050565b5f5f8473ffffffffffffffffffffffffffffffffffffffff16848460405160240161138a929190612027565b60405160208183030381529060405263095ea7b360e01b6020820180517bffffffffffffffffffffffffffffffffffffffffffffffffffffffff83818316178352505050506040516113dc91906120a0565b5f604051808303815f865af19150503d805f8114611415576040519150601f19603f3d011682016040523d82523d5f602084013e61141a565b606091505b509150915081801561144757505f8151148061144657508080602001905181019061144591906120e0565b5b5b611486576040517f08c379a000000000000000000000000000000000000000000000000000000000815260040161147d9061226a565b60405180910390fd5b5050505050565b5f5f8290505f5f90505b855181101561152e575f8682815181106114b4576114b3611d8c565b5b60200260200101519050808311156114f45780836040516020016114d99291906122a8565b6040516020818303038152906040528051906020012061151e565b82816040516020016115079291906122a8565b604051602081830303815290604052805190602001205b9250508080600101915050611497565b508381149150509392505050565b5f8173ffffffffffffffffffffffffffffffffffffffff169050919050565b5f5f8563ffffffff1690508473ffffffffffffffffffffffffffffffffffffffff1660a082901b1790508363ffffffff16602082901b1790508263ffffffff16602082901b17905080915050949350505050565b60405180604001604052805f81526020015f81525090565b5f5ffd5b5f5ffd5b5f73ffffffffffffffffffffffffffffffffffffffff82169050919050565b5f6115f8826115cf565b9050919050565b5f611609826115ee565b9050919050565b611619816115ff565b8114611623575f5ffd5b50565b5f8135905061163481611610565b92915050565b5f819050919050565b61164c8161163a565b8114611656575f5ffd5b50565b5f8135905061166781611643565b92915050565b5f5f60408385031215611683576116826115c7565b5b5f61169085828601611626565b92505060206116a185828601611659565b9150509250929050565b6116b4816115ee565b81146116be575f5ffd5b50565b5f813590506116cf816116ab565b92915050565b5f5f604083850312156116eb576116ea6115c7565b5b5f6116f885828601611659565b9250506020611709858286016116c1565b9150509250929050565b5f8115159050919050565b61172781611713565b82525050565b5f6020820190506117405f83018461171e565b92915050565b61174f816115ee565b82525050565b5f6020820190506117685f830184611746565b92915050565b5f60208284031215611783576117826115c7565b5b5f61179084828501611659565b91505092915050565b5f819050919050565b6117ab81611799565b82525050565b5f819050919050565b5f6117d46117cf6117ca846115cf565b6117b1565b6115cf565b9050919050565b5f6117e5826117ba565b9050919050565b5f6117f6826117db565b9050919050565b611806816117ec565b82525050565b5f6fffffffffffffffffffffffffffffffff82169050919050565b6118308161180c565b82525050565b5f63ffffffff82169050919050565b61184e81611836565b82525050565b5f60c0820190506118675f8301896117a2565b61187460208301886117fd565b6118816040830187611827565b61188e6060830186611845565b61189b6080830185611845565b6118a860a083018461171e565b979650505050505050565b5f6118bd826117db565b9050919050565b6118cd816118b3565b82525050565b5f6020820190506118e65f8301846118c4565b92915050565b6118f581611799565b81146118ff575f5ffd5b50565b5f81359050611910816118ec565b92915050565b61191f8161180c565b8114611929575f5ffd5b50565b5f8135905061193a81611916565b92915050565b61194981611836565b8114611953575f5ffd5b50565b5f8135905061196481611940565b92915050565b5f5f5f5f5f60a08688031215611983576119826115c7565b5b5f61199088828901611902565b95505060206119a188828901611626565b94505060406119b28882890161192c565b93505060606119c388828901611956565b92505060806119d488828901611956565b9150509295509295909350565b6119ea8161163a565b82525050565b5f602082019050611a035f8301846119e1565b92915050565b5f602082019050611a1c5f830184611845565b92915050565b5f60208284031215611a3757611a366115c7565b5b5f611a44848285016116c1565b91505092915050565b5f5ffd5b5f5ffd5b5f5ffd5b5f5f83601f840112611a6e57611a6d611a4d565b5b8235905067ffffffffffffffff811115611a8b57611a8a611a51565b5b602083019150836020820283011115611aa757611aa6611a55565b5b9250929050565b5f5f5f5f60608587031215611ac657611ac56115c7565b5b5f611ad387828801611659565b945050602085013567ffffffffffffffff811115611af457611af36115cb565b5b611b0087828801611a59565b93509350506040611b1387828801611956565b91505092959194509250565b7f4e487b71000000000000000000000000000000000000000000000000000000005f52601160045260245ffd5b5f611b568261163a565b91507fffffffffffffffffffffffffffffffffffffffffffffffffffffffffffffffff8203611b8857611b87611b1f565b5b600182019050919050565b5f606082019050611ba65f8301866117a2565b611bb360208301856117fd565b611bc06040830184611827565b949350505050565b5f8160601b9050919050565b5f611bde82611bc8565b9050919050565b5f611bef82611bd4565b9050919050565b611c07611c02826115ee565b611be5565b82525050565b5f8160e01b9050919050565b5f611c2382611c0d565b9050919050565b611c3b611c3682611836565b611c19565b82525050565b5f611c4c8285611bf6565b601482019150611c5c8284611c2a565b6004820191508190509392505050565b611c75816115cf565b8114611c7f575f5ffd5b50565b5f81519050611c9081611c6c565b92915050565b5f60208284031215611cab57611caa6115c7565b5b5f611cb884828501611c82565b91505092915050565b5f611ccb8261163a565b9150611cd68361163a565b9250828202611ce48161163a565b91508282048414831517611cfb57611cfa611b1f565b5b5092915050565b7f4e487b71000000000000000000000000000000000000000000000000000000005f52601260045260245ffd5b5f611d398261163a565b9150611d448361163a565b925082611d5457611d53611d02565b5b828204905092915050565b7f4e487b71000000000000000000000000000000000000000000000000000000005f52604160045260245ffd5b7f4e487b71000000000000000000000000000000000000000000000000000000005f52603260045260245ffd5b5f81519050919050565b5f82825260208201905092915050565b5f819050602082019050919050565b611deb8161163a565b82525050565b5f611e0b611e06611e018461163a565b6117b1565b61163a565b9050919050565b611e1b81611df1565b82525050565b604082015f820151611e355f850182611de2565b506020820151611e486020850182611e12565b50505050565b5f611e598383611e21565b60408301905092915050565b5f602082019050919050565b5f611e7b82611db9565b611e858185611dc3565b9350611e9083611dd3565b805f5b83811015611ec0578151611ea78882611e4e565b9750611eb283611e65565b925050600181019050611e93565b5085935050505092915050565b5f81600f0b9050919050565b611ee281611ecd565b82525050565b5f819050919050565b5f611f0b611f06611f0184611ee8565b6117b1565b611836565b9050919050565b611f1b81611ef1565b82525050565b5f60e082019050611f345f83018a6119e1565b611f4160208301896117fd565b8181036040830152611f538188611e71565b9050611f626060830187611ed9565b8181036080830152611f748186611e71565b9050611f8360a0830185611f12565b611f9060c0830184611f12565b98975050505050505050565b611fa581611ecd565b8114611faf575f5ffd5b50565b5f81519050611fc081611f9c565b92915050565b5f60208284031215611fdb57611fda6115c7565b5b5f611fe884828501611fb2565b91505092915050565b611ffa816115cf565b82525050565b5f6040820190506120135f830185611845565b6120206020830184611ff1565b9392505050565b5f60408201905061203a5f830185611746565b61204760208301846119e1565b9392505050565b5f81519050919050565b5f81905092915050565b8281835e5f83830152505050565b5f61207a8261204e565b6120848185612058565b9350612094818560208601612062565b80840191505092915050565b5f6120ab8284612070565b915081905092915050565b6120bf81611713565b81146120c9575f5ffd5b50565b5f815190506120da816120b6565b92915050565b5f602082840312156120f5576120f46115c7565b5b5f612102848285016120cc565b91505092915050565b5f82825260208201905092915050565b7f5472616e73666572206661696c656400000000000000000000000000000000005f82015250565b5f61214f600f8361210b565b915061215a8261211b565b602082019050919050565b5f6020820190508181035f83015261217c81612143565b9050919050565b5f6060820190506121965f830186611746565b6121a36020830185611746565b6121b060408301846119e1565b949350505050565b7f5472616e7366657246726f6d206661696c6564000000000000000000000000005f82015250565b5f6121ec60138361210b565b91506121f7826121b8565b602082019050919050565b5f6020820190508181035f830152612219816121e0565b9050919050565b7f417070726f7665206661696c65640000000000000000000000000000000000005f82015250565b5f612254600e8361210b565b915061225f82612220565b602082019050919050565b5f6020820190508181035f83015261228181612248565b9050919050565b5f819050919050565b6122a261229d82611799565b612288565b82525050565b5f6122b38285612291565b6020820191506122c38284612291565b602082019150819050939250505056fea264697066735822122052e023fbde0cdaf2d9833701a5408043610fc26b87deb95deacd92330b1c78d664736f6c63430008230033","linkReferences":{}},"methodIdentifiers":{"accountId()":"9cfd7cff","claim(uint256,bytes32[],uint32)":"f51bf933","claimed(uint256,address)":"120aa877","closeSprint(uint256)":"699165c0","drips()":"7c435d29","driverId()":"a1694a77","manager()":"481c6a75","newSprint(bytes32,address,uint128,uint32,uint32)":"7c716768","recoverTokens(address,uint256)":"069c9fae","sprintCount()":"efcbdc5c","sprints(uint256)":"48b012b7","transferManager(address)":"ba0e930a"},"id":20}